:0F0000007438913E740F913E7401913E90030548
:04000F00912480FEBA
:0F0300005465737400426C75652050696C6C0015
:0E040000EE75F00423D5F0FC2FF59022D29E6D
:10040E00758920888DD28EE493600AF5993099FD16
:10041E00C299A380F222E4936005914EA380F72245
:10042E0075890185F08CD28C308DFDC28CC28D22E7
:10043E00F5B0C2A5C2A6D2A7C2A775F0E0912E2232
:10044E00F5B0D2A5C2A6D2A7C2A775F0E0912E2212
:0D045E007580FF7590FF75A0FF75B000223E
:00000001FF
