:0F000000756013B107B155913F919691AE91C4C0
:0C000F00B11DB139B107B19480F080FE42
:10030000424C55452050494C4C0041424E2E20480D
:100310004541525442454154004445544543544F8D
:100320005200506C6561736520456E7465720059AA
:100330006F7572204147453A200046494E47455265
:100340002053454E534F520057414954494E472E72
:100350002E2E004B6565702046494E474552004F92
:100360006E205468652053454E534F520048423A20
:100370002000202842504D2900526573756C743A54
:100380002000474F4F44004641495200424144003B
:100390005078A05069825069825064785064784BDC
:1003A0005F734B5F734655644655644655643C50D5
:0103B00064E8
:0E040000EE75F00423D5F0FC2FF59022D29E6D
:10040E00758920888DD28EE493600AF5993099FD16
:0E041E00C299A380F22275890185F08CD28CE0
:0F042C00308DFDC28CC28D22741075F0019124A9
:10043B00D5E0F82274389176740F917674809176AA
:10044B0022E500700D748091767401917675000130
:10045B00800774C09176750000E49360059186A3C4
:0F046B0080F722E660FC91860880F8F5B0C2A504
:10047A00C2A6D2A7C2A775F0F0912422F5B0D2A5E0
:0F048A00C2A6D2A7C2A775F0F09124229003005A
:10049900916491347401917690030A914C900319F7
:1004A900914C913422900322914C90032F914C222C
:1004B900900353914C90035F914C2290033A914CD5
:0F04C900900348914C74007B00758C00758A007D
:0E04D800308D08C28D0BBB9802801B30A0F245
:1004E600308D08C28D0BBB9802800D20A0F2D28CF5
:1004F600B4000291B90480DAC28C75F006A4F555F1
:1005060022E560B40A0280024002740A75F003A470
:10051600F5F09003909322E55575F00A8485F03244
:0F05260075F00A8485F031F530433230433130BF
:0F053500433030227401917690036D91647830D9
:10054400916E900372916474C09176900379916472
:1005540022C2A17506007507009100C2A075800F24
:0F05640022C2A4C25A900382916422C2A3C25A37
:10057300900387916422C2A2755A4590038C9164BB
:10058300BF090ABE090280060E7F0080010F910099
:0D05930022E55AB445FBB2A1913480F52257
:00000001FF
